:100000000C9434000C9451000C9451000C94510049
:100010000C9451000C9451000C9451000C9451001C
:100020000C9451000C9451000C9451000C9451000C
:100030000C9451000C9451000C9451000C945100FC
:100040000C9451000C9451000C9478000C945100C5
:100050000C9451000C9451000C9451000C945100DC
:100060000C9451000C94510011241FBECFEFD8E026
:10007000DEBFCDBF11E0A0E0B1E0EEE1FCE002C0E8
:1000800005900D92AE31B107D9F721E0AEE1B1E0B4
:1000900001C01D92AC3AB207E1F70E949A000C949D
:1000A0000D060C940000ECE7F0E010828081806483
:1000B0008083EAE7F0E080818760808380818068C8
:1000C000808310927B0008951092C50087E680938C
:1000D000C400E1ECF0E080818861808380818068E9
:1000E0008083E2ECF0E080818660808378940895DC
:1000F0001F920F920FB60F9211248F93EF93FF93DD
:10010000E6ECF0E0808180932601809126018083D7
:10011000FF91EF918F910F900FBE0F901F90189548
:10012000E0ECF0E0908195FFFDCF8093C60080E089
:1001300090E008950E9453000E946400219AE0E834
:10014000F0E08081826A8083E1E8F0E080818B6169
:10015000808387E893E19093870080938600CAE7C5
:10016000D0E00F2EF8E7CF2ED12CF02D0F2EF9E78F
:100170006F2E712CF02D0F2EF0E04F2EF1E05F2E40
:10018000F02D0F2EFBE2EF2EF1E0FF2EF02D212CB3
:10019000888180648883888186FDFDCFF601808117
:1001A00090E0A0E0B0E08093220190932301A0931F
:1001B0002401B0932501F301208140912201509147
:1001C0002301609124017091250130E0322F222714
:1001D000C901330FAA0BBB0B840F951FA61FB71FB6
:1001E0008093220190932301A0932401B0932501D1
:1001F0006091220170912301809124019091250149
:100200000E94280220E030E04FEC54E40E94B60245
:1002100020E030E040E85AE30E94B60220E030E0FF
:1002200048E054E40E948D010E94F9010E942802D6
:1002300020E030E040E851E40E94B60220E030E0E7
:1002400040E85CE30E94B60220E030E040E85FE373
:100250000E948C010E94F9014B015C0180912201F6
:1002600090912301A0912401B09125019F928F923A
:100270009F938F935F924F92FF92EF920E9423037E
:10028000F70101900020E9F731978F010B521140DF
:100290008DB79EB708960FB6F8949EBF0FBE8DBF60
:1002A000101611067CF4822D90E0312CFC01E55DE6
:1002B000FE4F80810E9490003394832D90E0801740
:1002C0009107A4F380911E0190911F01A09120013C
:1002D000B09121019401281B390BC901992324F401
:1002E00088279927821B930B029764F080921E0146
:1002F00090921F01A0922001B0922101E8E8F0E065
:1003000091828082FFEF23ED80E3F1502040804016
:10031000E1F700C000003CCF5058BB27AA270E943D
:10032000A4010C947C020E946E0238F00E947502B7
:1003300020F039F49F3F19F426F40C946B020EF46C
:10034000E095E7FB0C946502E92F0E948D0258F3BB
:10035000BA17620773078407950720F079F4A6F5AA
:100360000C94AF020EF4E0950B2EBA2FA02D0B01CA
:10037000B90190010C01CA01A0011124FF27591BEA
:1003800099F0593F50F4503E68F11A16F040A22FF0
:10039000232F342F4427585FF3CF46953795279561
:1003A000A795F0405395C9F77EF41F16BA0B620B60
:1003B000730B840BBAF09150A1F0FF0FBB1F661FA7
:1003C000771F881FC2F70EC0BA0F621F731F841FEA
:1003D00048F4879577956795B795F7959E3F08F010
:1003E000B0CF9395880F08F09927EE0F97958795D2
:1003F00008950E94950288F09F5798F0B92F992789
:10040000B751B0F0E1F0660F771F881F991F1AF0FF
:10041000BA95C9F714C0B13091F00E94AF02B1E0B3
:1004200008950C94AF02672F782F8827B85F39F0B2
:10043000B93FCCF3869577956795B395D9F73EF498
:1004400090958095709561957F4F8F4F9F4F089540
:10045000E89409C097FB3EF490958095709561955E
:100460007F4F8F4F9F4F9923A9F0F92F96E9BB2714
:100470009395F695879577956795B795F111F8CF90
:10048000FAF4BB0F11F460FF1BC06F5F7F4F8F4FFB
:100490009F4F16C0882311F096E911C0772321F0F1
:1004A0009EE8872F762F05C0662371F096E8862F89
:1004B00070E060E02AF09A95660F771F881FDAF7E0
:1004C000880F9695879597F9089597F99F6780E823
:1004D00070E060E008959FEF80EC089500240A9496
:1004E0001616170618060906089500240A9412160F
:1004F0001306140605060895092E0394000C11F442
:10050000882352F0BB0F40F4BF2B11F460FF04C0EE
:100510006F5F7F4F8F4F9F4F089557FD9058440F47
:10052000551F59F05F3F71F04795880F97FB991F52
:1005300061F09F3F79F0879508951216130614060F
:10054000551FF2CF4695F1DF08C01616170618069C
:10055000991FF1CF86957105610508940895E89477
:10056000BB2766277727CB0197F908950E94C90218
:100570000C947C020E946E0238F00E94750220F0FA
:10058000952311F00C9465020C946B0211240C94C9
:10059000B0020E948D0270F3959FC1F3950F50E059
:1005A000551F629FF001729FBB27F00DB11D639F25
:1005B000AA27F00DB11DAA1F649F6627B00DA11DCB
:1005C000661F829F2227B00DA11D621F739FB00D71
:1005D000A11D621F839FA00D611D221F749F3327E1
:1005E000A00D611D231F849F600D211D822F762F7A
:1005F0006A2F11249F5750409AF0F1F088234AF057
:10060000EE0FFF1FBB1F661F771F881F91505040C2
:10061000A9F79E3F510580F00C9465020C94B0023E
:100620005F3FE4F3983ED4F3869577956795B79549
:10063000F795E7959F5FC1F7FE2B880F911D969563
:10064000879597F90895AEE0B0E0E9E2F3E00C9405
:10065000E4050D891E8986E08C831A8309838FEF58
:100660009FE79E838D83AE01475E5F4F6F89788DD4
:10067000CE0101960E944503EF81F885E00FF11F3E
:1006800010822E96E4E00C940006ABE0B0E0EBE4C0
:10069000F3E00C94D6056C017B018A01FC01178202
:1006A0001682838181FFCCC1CE0101963C01F60107
:1006B0009381F70193FD859193FF81917F018823B9
:1006C00009F4BAC1853239F493FD859193FF819184
:1006D0007F01853229F4B60190E00E943C05E7CF06
:1006E000912C212C312CFFE1F315D8F08B3279F0CD
:1006F00038F4803279F08332A1F4232D20611DC0BB
:100700008D3261F0803369F4232D216016C0832D72
:100710008260382EE32DE4603E2E2AC0F32DF8606F
:100720001DC037FC2DC020ED280F2A3040F08E323E
:10073000B9F436FC81C1232D2064322E19C036FE57
:1007400006C08AE0989E200D1124922E11C0EAE086
:100750002E9E200D1124222EF32DF0623F2E08C074
:100760008C3621F4832D8068382E02C0883641F4FF
:10077000F70193FD859193FF81917F018111B3CFA3
:10078000982F9F7D9554933028F40C5F1F4F9FE363
:1007900099830DC0833631F0833771F0833509F0CA
:1007A00059C021C0F801808189830E5F1F4F8824C2
:1007B0008394912C530113C02801F2E04F0E511C79
:1007C000F801A080B18036FE03C0692D70E002C040
:1007D0006FEF7FEFC5010E9431054C018201F32DBF
:1007E000FF773F2E16C0280122E0420E511CF8016F
:1007F000A080B18036FE03C0692D70E002C06FEFAB
:100800007FEFC5010E9426054C01F32DF0683F2EB5
:10081000820133FC1BC0822D90E088169906B0F44B
:10082000B60180E290E00E943C052A94F4CFF501E5
:1008300037FC859137FE81915F01B60190E00E94FF
:100840003C0521102A9421E0821A91088114910418
:1008500071F7E8C0843611F0893641F5F80137FEAA
:1008600007C060817181828193810C5F1F4F08C036
:1008700060817181072E000C880B990B0E5F1F4F52
:10088000F32DFF763F2E97FF09C0909580957095C8
:1008900061957F4F8F4F9F4FF0683F2E2AE030E0E9
:1008A000A3010E947805882E861845C0853731F44B
:1008B000232D2F7EB22E2AE030E025C0932D997F84
:1008C000B92E8F36C1F018F4883579F0B5C080376D
:1008D00019F0883721F0B0C0E92FE061BE2EB4FED8
:1008E0000DC0FB2DF460BF2E09C034FE0AC0292FB5
:1008F0002660B22E06C028E030E005C020E130E0DE
:1009000002C020E132E0F801B7FE07C060817181CA
:10091000828193810C5F1F4F06C06081718180E0EE
:1009200090E00E5F1F4FA3010E947805882E861865
:10093000FB2DFF773F2E36FE0DC0232D2E7FA22EDE
:10094000891458F434FE0BC032FC09C0832D8E7E0E
:10095000A82E05C0B82CA32C03C0B82C01C0B92CFC
:10096000A4FE0FC0FE01E80DF11D8081803321F44B
:100970009A2D997EA92E09C0A2FE06C0B394B39405
:1009800004C08A2D867809F0B394A3FC11C0A0FEA0
:1009900006C0B21488F4280C922C9B180EC0B21416
:1009A00060F4B60180E290E00E943C05B394F7CF7A
:1009B000B21418F42B1802C0982C212CA4FE10C0DD
:1009C000B60180E390E00E943C05A2FE17C0A1FCA6
:1009D00003C088E790E002C088E590E0B6010CC053
:1009E0008A2D867859F0A1FE02C08BE201C080E218
:1009F000A7FC8DE2B60190E00E943C05891438F412
:100A0000B60180E390E00E943C059A94F7CF8A9467
:100A1000F301E80DF11D8081B60190E00E943C05D4
:100A20008110F5CF222009F442CEB60180E290E099
:100A30000E943C052A94F6CFF6018681978102C078
:100A40008FEF9FEF2B96E2E10C94F205FC010590ED
:100A5000615070400110D8F7809590958E0F9F1FC0
:100A60000895FC016150704001900110D8F7809505
:100A700090958E0F9F1F08950F931F93CF93DF9331
:100A8000FB01238121FD03C08FEF9FEF2CC022FFCC
:100A900016C046815781248135814217530744F49B
:100AA000A081B1819D012F5F3F4F318320838C93C3
:100AB000268137812F5F3F4F3783268314C08B01F8
:100AC000EC01FB010084F185E02D0995892BE1F60D
:100AD000D80116968D919C911797019617969C9325
:100AE0008E931697CE01DF91CF911F910F910895AC
:100AF000FA01AA27283051F1203181F1E8946F934F
:100B00006E7F6E5F7F4F8F4F9F4FAF4FB1E03ED0F4
:100B1000B4E03CD0670F781F891F9A1FA11D680F92
:100B2000791F8A1F911DA11D6A0F711D811D911DC5
:100B3000A11D20D009F468943F912AE0269F11243A
:100B40003019305D3193DEF6CF010895462F47709E
:100B5000405D4193B3E00FD0C9F7F6CF462F4F70F9
:100B6000405D4A3318F0495D31FD4052419302D057
:100B7000A9F7EACFB4E0A6959795879577956795FD
:100B8000BA95C9F700976105710508959B01AC01FD
:100B90000A2E06945795479537952795BA95C9F724
:100BA000620F731F841F951FA01D08952F923F92FF
:100BB0004F925F926F927F928F929F92AF92BF926D
:100BC000CF92DF92EF92FF920F931F93CF93DF9319
:100BD000CDB7DEB7CA1BDB0B0FB6F894DEBF0FBE76
:100BE000CDBF09942A88398848885F846E847D84C3
:100BF0008C849B84AA84B984C884DF80EE80FD80C5
:100C00000C811B81AA81B981CE0FD11D0FB6F8943A
:0E0C1000DEBF0FBECDBFED010895F894FFCFFB
:100C1E006164635F76616C75653D2564206F6372F8
:0E0C2E005F76616C75652069732025640A008D
:00000001FF
